:100000000C94340018950000189500001895000015
:10001000189500001895000018950000189500002C
:10002000189500001895000018950000189500001C
:10003000189500001895000018950000189500000C
:100040000C94A700189500000C94970018950000D8
:1000500018950000189500001895000018950000EC
:1000600018950000189500008FEF8DBFC8EDE0ECEB
:100070004E2E88E08EBFD8E0F8E05F2EA89584B7BA
:10008000082E877F84BF88E1992780936000909332
:100090006000EEEFF7E0A0E0B1E088278D933197A4
:1000A000E9F788E08093C40080E08093C50088E190
:1000B0008093C100662472E07093C00078E9709369
:1000C000C10076E07093C20070E07093C50070E1EB
:1000D0007093C4008FEF84B982E08AB980E087B959
:1000E00085E085BD80E084BD70916E007160709385
:1000F0006E0070E075BD70E076BD789486E00E9479
:10010000430100E010E020E030E040E05FEF6FEFFF
:100110007FEFB0E0A0E0D1E0C0E0F0E0E0E0F894F4
:10012000752F789470FFFBCF671319C0F8CF5395E4
:100130004091C600C52F488350FF05C040E045BD33
:1001400046BD7894089545E045BD789408955A9544
:1001500040E045BD46BD78940C9400000895639539
:10016000C62F39916395A88100C020EF132F122369
:1001700016951695169516952FE03223889400D083
:10018000FF91EF9129E0210FE21F08F4F3950000A1
:1001900009951CC01EC026C029C031C039C047C047
:1001A00050C05AC060C066C019C0A8CFA7CFA6CFA4
:1001B000A5CF0090C00005FEFCCF0093C6000895B7
:1001C0001FEF1395221F1313FCCF08952F912F912A
:1001D00095CF2F912F910C91ECDFA1CF2F912F91E3
:1001E0000A2F9DCF2F912F910C9399CF2F912F9163
:1001F00020E00894E5DF1C91122B1C9390CF2F91E7
:100200002F912FEF8894DCDF1C9112231C9387CF52
:100210002F912F9120E00894D3DF0C910223021339
:1002200003C001E0C6DF7BCF00E0C3DF78CF2F91B2
:100230002F9120E00894C4DF0C9102230213FCCF1D
:100240006ECF2F912F9120E00894BADF0C910223FA
:10025000021301C0FBCF63CF2F912F910D91A9DF26
:100260000C91A7DF5CCF2F912F910C91A2DF0E9103
:10027000A0DF55CF2F912F916A1B625050CF0C9465
:100280007E00F894FFCF0090C00005FEFCCF809365
:10029000C60008953197F1F70895689462F80895BB
:0602A000E89462F80895E5
:00000001FF
